:100000000C9434000C9451000C9451000C94510049
:100010000C9451000C9451000C9451000C9451001C
:100020000C9451000C9451000C9451000C9451000C
:100030000C9451000C9451000C9451000C945100FC
:100040000C9451000C9451000C94AF000C9451008E
:100050000C9451000C9451000C9451000C945100DC
:100060000C9451000C94510011241FBECFEFD8E026
:10007000DEBFCDBF13E0A0E0B1E0E4EAF5E002C0EE
:1000800005900D92A432B107D9F723E0A4E2B3E0C2
:1000900001C01D92AD34B207E1F70E9446010C94F5
:1000A000D0020C9400008093C4009093C500E2EC51
:1000B000F0E0808183608083E1ECF0E08081886102
:1000C000808308958093C6002FE788E391E0215054
:1000D00080409040E1F700C000000895FC0191913C
:1000E000992361F09093C6002FE788E391E02150B7
:1000F00080409040E1F700C00000F1CF089583E315
:1001000090E00E9453003D98459AE1ECF0E0808138
:1001100080688083789480E091E00C946E0080E0A9
:1001200090E0FC01E75DFC4F108201968032910562
:10013000C1F708959091240380912803981769F0DE
:10014000809128038F5F8F7180932803E0912803AB
:10015000F0E0E75DFC4F8081089580E008951F92F4
:100160000F920FB60F9211248F939F93EF93FF93EB
:100170008091C600E0912403EF5FEF719091280316
:10018000E91759F0E0932403F0E0E75DFC4F80832A
:100190008A3019F481E080934C03FF91EF919F9195
:1001A0008F910F900FBE0F901F90189584EA809347
:1001B000BC008091BC0087FFFCCF089584E9809348
:1001C000BC008091BC0084FFFCCF08958093BB00ED
:1001D00084E88093BC008091BC0087FFFCCF089529
:1001E00020E4829FC001112484688093BC00809128
:1001F000BC0087FFFCCF8091BB000895FF920F9356
:100200001F93CF93DF93D82FC62FF42E89010E941E
:10021000D60020E1D29FC0011124CC0FC82B8C2F17
:100220000E94E6008F2D0E94E6000E94D6008C2FCF
:1002300081600E94E60081E00E94F000F801808366
:10024000DF91CF911F910F91FF900C94DE000F93DF
:100250001F93CF93DF93C82FD62F042F122F0E9406
:10026000D60080E1C89F900111248D2F880F822B2A
:100270000E94E600802F0E94E600812F0E94E60087
:10028000DF91CF911F910F910C94DE00CF93DF93FC
:10029000CDB7DEB72F970FB6F894DEBF0FBECDBF38
:1002A0000E947F0087B18F7C87B988B1806388B94D
:1002B00081E08093B9008FE08093B80085E191E000
:1002C0000E946E0086E6E82E94E6D92E2AE0C22E21
:1002D0000E949A008F878F858F3609F086C01F860F
:1002E0008AEB91E00E946E000E948F008F85803320
:1002F00069F08F85813351F08F85823339F08F8596
:10030000833321F00E949A008F87F0CF8F8580532E
:100310008E8780EF91E00E946E000E948F00EF8632
:1003200009E413E08F8590E0C0970A9720F00E94BF
:100330009A008F87F7CF8F85F80181938F010E94F4
:100340008F00EF86F3E00C341F0761F780914903BB
:1003500090E0C097D89E8001D99E100D1124809105
:100360004A0390E0C097C89E9001C99E300D1124A9
:10037000020F131F80914B0390E0C097080F191FC5
:1003800085E092E00E946E0089E493E00E946E0096
:100390000F3F110509F0D8F46E859E012F5F3F4F86
:1003A000402F8AE00E94FE0088E192E00E946E00E9
:1003B00089814AE0BE01655F7F4F90E00E94A602FE
:1003C000CE010B960E946E0083E191E002C086E2AE
:1003D00092E00E946E002FEF81EE94E02150804069
:1003E0009040E1F700C00000ABC08F858A3709F06C
:1003F000ABC087E692E00E946E000E948F008F855E
:10040000803369F08F85813351F08F85823339F0E5
:100410008F85833321F00E949A008F87F0CF8F85DC
:1004200080538E8780EF91E00E946E000E948F00C3
:10043000EF8609E413E08F8590E0C0970A9720F0DB
:100440000E949A008F87F7CF8F85F80181938F01E3
:100450000E948F00EF86F3E00C341F0761F78DE9EF
:1004600092E00E946E000E948F0086E68F8705E270
:1004700013E08F8590E0C0970A9720F00E949A00C1
:100480008F87F7CF8F85F80181938F010E948F00AE
:10049000EF86F3E008321F0761F78091490390E08F
:1004A000C097D89E8001D99E100D112480914A03D7
:1004B00090E0C097C89E9001C99E300D1124020F94
:1004C000131F80914B0390E0C097080F191FA09055
:1004D0002503B0902603F090270385E092E00E9468
:1004E0006E0089E493E00E946E000F3F110509F051
:1004F00018F58A2D90E0C097D89EA001D99E500D86
:1005000011248B2D90E0C097C89E9001C99E300D9C
:100510001124240F351F8F2D90E0C097280F391F0D
:100520002F3F310509F040F46E85402F8AE00E948C
:10053000270187EC92E002C087ED92E00E946E00F6
:1005400085E191E00E946E001F86C2CEBB27FB01B1
:100550005527AA27880F991FAA1FA41710F0A41BBC
:1005600083955051B9F7A05DAA3308F0A95DA19316
:10057000009779F7B111B1931192CB010C94C0029D
:10058000DC01FC01672F71917723E1F7329704C0FA
:100590007C916D9370836291AE17BF07C8F3089585
:0405A000F894FFCFFD
:1005A4005445535420554152543A20574F524B49C5
:1005B4004E470A0A000A2323232323232323232326
:1005C4002323232350524F4752414D20474C4F572A
:1005D4004E59232323232323232323232323232386
:1005E4000A416279207A617069736163207761726C
:1005F400746F73636920772070616D696563692026
:100604006E616369736E696A207A0A416279206F48
:1006140064637A7974616320776172746F73636958
:10062400206E616369736E696A206F2E0A23232327
:100634002323232323232323232323232323232386
:100644002323232323232323232323232323232376
:10065400232323232323230A3A00506F64616A204F
:10066400626C6F6B207A206B746F7265676F2063A6
:10067400686365737A206F64637A79746163207741
:100684006172746F7363202830202D2033293A005F
:10069400506F64616A2061647265732028302D3262
:1006A4003535293A00506F64616E79206164726552
:1006B4007320746F203A20000A0A4F64637A7974B5
:1006C400616E6F203A000A416472657320706F771F
:1006D400696E69656E20627963207A207A616B7233
:1006E40065737520302D3235352E0A506F77726F51
:1006F4007420646F206D656E7520676C6F776E650E
:10070400676F2E2E2E0A00506F64616A20626C6F30
:100714006B20646F206B746F7265676F206368630E
:1007240065737A207A61706973616320776172748A
:100734006F7363202830202D2033293A00506F64D2
:10074400616A206C69637A6265206A616B61206307
:10075400686365737A207A617069736163202830F5
:100764002D323535293A000A0A54525741205A414C
:100774005049532E2E2E000A4164726573206F7205
:10078400617A206C69637A626120706F77696E6E3A
:100794007920627963207A207A616B72657375209F
:1007A400302D3235352E0A506F77726F7420646F96
:1007B400206D656E7520676C6F776E65676F2E2E82
:0407C4002E0A0000F9
:00000001FF
