:100000000C9434000C9451000C9451000C94510049
:100010000C9451000C9451000C9451000C9451001C
:100020000C9451000C9451000C9451000C940E014E
:100030000C9451000C9451000C9400020C9451004B
:100040000C9451000C9451000C94CC010C94510070
:100050000C9451000C9451000C9451000C945100DC
:100060000C9451000C94510011241FBECFEFD8E026
:10007000DEBFCDBF11E0A0E0B1E0E0E5F4E002C0FA
:1000800005900D92A832B107D9F721E0A8E2B1E0BE
:1000900001C01D92AC35B207E1F70E94EE010C944D
:1000A00026020C940000529A5A98539A5B98E1E801
:1000B000F0E080818860808380818260808388EC2A
:1000C00090E09093890080938800EFE6F0E08081D3
:1000D00082608083789408954530510509F04DC0C1
:1000E0008230910531F12CF4009751F0019781F0A5
:1000F00008958430910569F124F1059799F10895E7
:100100008CEA96E2909333018093320124E607C093
:100110008CEB97E0909333018093320124E1269F8A
:10012000C001279F900D11249093290180932801ED
:1001300008958EED93E090933301809332012AE08D
:10014000EECF8FEE91E0909333018093320125E062
:10015000E6CF86EC90E09093330180933201660FF6
:10016000771F06C083E690E09093330180933201BD
:10017000709329016093280108954630510509F0D4
:100180004CC082309105E9F02CF4009751F00197B2
:1001900081F008958430910569F1DCF0059799F1BB
:1001A00008958CEA96E290932D0180932C0124E629
:1001B00017C08CEB97E090932D0180932C0124E1E4
:1001C0000FC08EED93E090932D0180932C012AE0D7
:1001D00007C08FEE91E090932D0180932C0125E0D4
:1001E000269FC001279F900D112490933101809389
:1001F0003001089586EC90E090932D0180932C01BE
:10020000660F771F06C083E690E090932D018093E0
:100210002C01709331016093300108951F920F9269
:100220000FB60F9211242F933F938F939F9320919A
:100230002E0130912F0180913201909133012817C6
:10024000390741F42091280130912901232B11F025
:100250005A9A07C020912E0130912F0182179307DF
:1002600021F410922F0110922E0120912E01309135
:100270002F0180912801909129012817390709F44D
:100280005A98209138013091390180912C01909138
:100290002D012817390741F42091300130913101A7
:1002A000232B11F05B9A07C020913801309139015E
:1002B0008217930721F4109239011092380120918E
:1002C0003801309139018091300190913101281726
:1002D000390709F45B9880913801909139010196B2
:1002E000909339018093380180912E0190912F01D4
:1002F000019690932F0180932E019F918F913F91B2
:100300002F910F900FBE0F901F9018958093C400EF
:100310009093C500E2ECF0E0808183608083E1ECA3
:10032000F0E0808188618083089583E090E00E94FE
:100330008601E1ECF0E08081806880837894089504
:100340008093C6008FE891E00197F1F700C00000AC
:100350000895FC019191992349F09093C6008FE88C
:1003600091E00197F1F700C00000F4CF089590915B
:100370003A0180913B01981769F080913B018F5FB2
:100380008F7180933B01E0913B01F0E0E45CFE4F14
:100390008081089580E008951F920F920FB60F920A
:1003A00011248F939F93EF93FF938091C600E09168
:1003B0003A01EF5FEF7190913B01E91731F0E09363
:1003C0003A01F0E0E45CFE4F8083FF91EF919F9152
:1003D0008F910F900FBE0F901F9018950E9495015E
:1003E00084B5826084BD85B5856085BD80916E00D1
:1003F000826080936E008BE987BD7894219AFFCF4D
:100400001F920F920FB60F9211242F933F934F9389
:100410005F936F937F938F939F93AF93BF93EF936C
:10042000FF9380E091E00E94A901FF91EF91BF91BD
:10043000AF919F918F917F916F915F914F913F917C
:100440002F910F900FBE0F901F901895F894FFCF2B
:1004500074616B746F70616E696531323334353637
:100460003738396162636465666768696A6B6C6DA9
:080470006E6F7072737471006D
:00000001FF
