:100000000C94B1000C9448010C94C3000C94C300F0
:100010000C94C3000C94C3000C94C3000C94C30054
:100020000C94C3000C94C3000C94C3000C94C30044
:100030000C94C3000C94C3000C9476010C94C30080
:100040000C94C3000C94C3000C940B010C94C300DB
:100050000C94C3000C94C3000C94C3000C94C30014
:100060000C94C3000C94C30000407A10F35A00A013
:10007000724E18090010A5D4E80000E87648170071
:1000800000E40B54020000CA9A3B000000E1F505B1
:10009000000080969800000040420F000000A086FB
:1000A00001000000102700000000E803000000002D
:1000B0006400000000000A000000000001000000D1
:1000C00000002C76D888DC674F0823DFC1DFAE59EB
:1000D000E1B1B796E5E3E453C63AE651997696E87E
:1000E000E6C28426EB898C9B62ED407C6FFCEFBC02
:1000F0009C9F40F2BAA56FA5F490055A2AF75C932D
:100100006B6CF9676DC11BFCE0E40D47FEF520E662
:10011000B500D0ED902E0300943577050080841E45
:10012000080000204E0A000000C80C333333330FA0
:10013000986E12831141EF8D2114893BE65516CF3D
:10014000FEE6DB18D1844B381BF77C1D901DA4BB49
:10015000E424203284725E228100C9F124ECA1E5FE
:100160003D2711241FBECFEFD8E0DEBFCDBF21E079
:10017000A0E0B1E001C01D92A732B207E1F70E94F2
:100180002D010C9455050C9400008093C4009093AD
:10019000C500E2ECF0E0808183608083E1ECF0E078
:1001A000808188618083089583E090E00E94C5008B
:1001B000E1ECF0E0808180688083789408958093FA
:1001C000C6008FE891E00197F1F700C000000895A4
:1001D000FC019191992349F09093C6008FE891E03A
:1001E0000197F1F700C00000F4CF0895909100014D
:1001F00080910101981769F0809101018F5F8F71E3
:1002000080930101E0910101F0E0EE5FFE4F8081FB
:10021000089580E008951F920F920FB60F92112457
:100220008F939F93EF93FF938091C600E09100011D
:10023000EF5FEF7190910101E91731F0E093000158
:10024000F0E0EE5FFE4F8083FF91EF919F918F91E1
:100250000F900FBE0F901F9018950E94D40084B588
:10026000826084BD85B5856085BD80916E008260A9
:1002700080936E008BE987BD209A289852985A9AED
:1002800080916900836080936900E89A7894FFCF39
:100290001F920F920FB60F9211248F939F9380910C
:1002A00025019091260101969093260180932501C6
:1002B0008091250190912601829789F495B181E082
:1002C000892785B98091230190912401019690930B
:1002D00024018093230110922601109225019F9101
:1002E0008F910F900FBE0F901F9018951F920F9235
:1002F0000FB60F9211240F931F932F933F934F9399
:100300005F936F937F938F939F93AF93BF93EF937D
:10031000FF93CF93DF9300D0CDB7DEB7809122015A
:100320008F5F80932201809122018436F1F46091E5
:1003300023017091240180E090E00E943E0220E0C1
:1003400030E040EC51E40E94CC018E010F5F1F4F62
:1003500022E042E00E94CC0210922401109223017C
:10036000C8010E94E800109222010F900F90DF91C7
:10037000CF91FF91EF91BF91AF919F918F917F911D
:100380006F915F914F913F912F911F910F910F901E
:100390000FBE0F901F9018950E94E0010C949202DE
:1003A0000E948B0258F00E94840240F029F45F3FC3
:1003B00029F00C947B0251110C94C6020C9481021A
:1003C0000E94A30268F39923B1F3552391F3951B7F
:1003D000550BBB27AA2762177307840738F09F5F66
:1003E0005F4F220F331F441FAA1FA9F335D00E2ED3
:1003F0003AF0E0E832D091505040E695001CCAF740
:100400002BD0FE2F29D0660F771F881FBB1F261702
:1004100037074807AB07B0E809F0BB0B802DBF01D9
:10042000FF2793585F4F3AF09E3F510578F00C94A8
:100430007B020C94C6025F3FE4F3983ED4F38695AA
:1004400077956795B795F7959F5FC9F7880F911DC9
:100450009695879597F90895E1E0660F771F881FB5
:10046000BB1F621773078407BA0720F0621B730B68
:10047000840BBA0BEE1F88F7E0950895E89409C045
:1004800097FB3EF490958095709561957F4F8F4FC7
:100490009F4F9923A9F0F92F96E9BB279395F695DD
:1004A000879577956795B795F111F8CFFAF4BB0F5B
:1004B00011F460FF1BC06F5F7F4F8F4F9F4F16C0BF
:1004C000882311F096E911C0772321F09EE8872F49
:1004D000762F05C0662371F096E8862F70E060E005
:1004E0002AF09A95660F771F881FDAF7880F96957E
:1004F000879597F9089597F99F6780E870E060E025
:1005000008959FEF80EC089500240A9416161706AC
:1005100018060906089500240A94121613061406F4
:1005200005060895092E0394000C11F4882352F057
:10053000BB0F40F4BF2B11F460FF04C06F5F7F4F0F
:100540008F4F9F4F089557FD9058440F551F59F0F6
:100550005F3F71F04795880F97FB991F61F09F3FB0
:1005600079F087950895121613061406551FF2CFD9
:100570004695F1DF08C0161617061806991FF1CF29
:1005800086957105610508940895E894BB27662750
:100590007727CB0197F90895EF920F931F93CF938D
:1005A000DF93E80147FD02C034E001C034E1042ECE
:1005B000000C550B57FF03C0519541955109E32E8F
:1005C000022F242FAE010E94EC02CE01DF91CF91C9
:1005D0001F910F91EF900895A9E0B0E0E2EFF2E0F3
:1005E0000C9424056A01122FB02E2BE3201720F063
:1005F000FF24F394F00E02C02CE3F22E0F2D27E01F
:10060000AE014F5F5F4F0E944604BC014981842FB9
:100610008970813031F0E1FC06C0E0FE06C090E256
:1006200005C09DE203C09BE201C090E05E2D5071C9
:1006300043FF3CC0911102C083E001C084E08117F8
:1006400018F4212F281B01C020E051110BC0F60126
:10065000822F30E2882319F031938150FBCFC20EF4
:10066000D11C20E0992329F0D6019C93F601319604
:100670006F01C6010396E2FE0AC03EE4D6013C9338
:1006800041E411964C93119712963C9306C03EE6B6
:10069000F601308341E641833283FC01322F40E290
:1006A000332309F442C041933150FACF42FF44C092
:1006B000911102C083E001C084E0811718F4212F5A
:1006C000281B01C020E051110BC0F601822F30E23F
:1006D000882319F031938150FBCFC20ED11C20E04A
:1006E000992329F0D6019C93F60131966F01C6013A
:1006F0000396E2FE0BC039E4D6013C933EE411962A
:100700003C93119736E412963C9307C039E6F60104
:1007100030833EE6318336E63283FC01322F40E2FD
:10072000332319F041933150FBCFFC01E20FF11D4F
:1007300010828EEF9FEFA6C021E030E0911102C041
:1007400020E030E0161617061CF4FB01319602C0BB
:10075000E1E0F0E02E0F3F1FBB2021F0EB2DF0E099
:10076000319602C0E0E0F0E02E0F3F1FE12FF0E0F5
:100770002E173F071CF4121B212F01C020E08E2DE5
:10078000887159F4F601822F30E2882319F03193F1
:100790008150FBCFC20ED11C20E0992329F0D60155
:1007A0009C93F60131966F0151110BC0F601822F17
:1007B00090E3882319F091938150FBCFC20ED11C96
:1007C00020E00F2D060F9A81342F307144FF03C0B3
:1007D000913309F40150101624F4093018F008E0A0
:1007E00001C001E0AB0177FF02C040E050E0FB0137
:1007F000E41BF50BA1E0B0E0AC0FBD1FEA0FFB1F3F
:100800008EE2A82E4B01801A91080B2D10E0119555
:10081000019511094F3FBFEF5B0721F4D601AC9260
:1008200011966D01641775072CF08416950614F463
:10083000818101C080E3415051093196D601119662
:100840007D014017510724F0D6018C936701E2CF58
:100850006417750739F4963320F4953319F4311180
:1008600001C081E3F6018083F701822F90E28823A3
:1008700019F091938150FBCFF701E20FF11D108227
:1008800080E090E02996ECE00C944005283008F0D8
:1008900027E03327DA01990F311D87FD916000961B
:1008A0006105710539F432602E5F3D9330E32A957E
:1008B000E1F708959F3F30F080387105610509F038
:1008C0003C5F3C5F3D93913008F08068911DDF9361
:1008D000CF931F930F93FF92EF92192F987F9695C6
:1008E000E92F96959695E90FFF27EE53FF4F99272D
:1008F0003327EE24FF24A701E7010590089407940D
:1009000028F4360FE71EF81E491F511D660F771F8A
:10091000881F991F0694A1F70590079428F4E70E05
:10092000F81E491F561FC11D770F881F991F661F8C
:100930000694A1F70590079428F4F80E491F561F56
:10094000C71FD11D880F991F661F771F0694A1F737
:100950000590079420F4490F561FC71FD81F990F01
:10096000661F771F881F0694A9F78491109517704A
:1009700041F0D695C79557954795F794E7941A9502
:10098000C1F7E8E6F0E0689415901591359165910E
:10099000959105907FE27395E118F10A430B560B90
:1009A000C90BD009C0F7E10CF11E431F561FC91F28
:1009B000D01D7EF4703311F48A95E6CFE89401508F
:1009C00030F0080F0AF40027021708F4202F2395AF
:1009D000022F7A3328F079E37D932A95E9F710C046
:1009E0007D932A9589F6069497956795379517957F
:1009F0001794E118F10A430B560BC90BD00998F074
:100A000023957E9173957A3308F070E37C932013DD
:100A1000B8F77E9170617D9330F0839571E37D939B
:100A200070E32A95E1F71124EF90FF900F911F9149
:100A3000CF91DF91992787FD909508952F923F924E
:100A40004F925F926F927F928F929F92AF92BF92DE
:100A5000CF92DF92EF92FF920F931F93CF93DF938A
:100A6000CDB7DEB7CA1BDB0B0FB6F894DEBF0FBEE7
:100A7000CDBF09942A88398848885F846E847D8434
:100A80008C849B84AA84B984C884DF80EE80FD8036
:100A90000C811B81AA81B981CE0FD11D0FB6F894AC
:0E0AA000DEBF0FBECDBFED010895F894FFCF6D
:00000001FF
