:100000000C9434000C9446000C9446000C9446006A
:100010000C9446000C9446000C9446000C94460048
:100020000C9446000C9446000C9446000C942F014E
:100030000C9446000C9446000C9446000C94460028
:100040000C9446000C9446000C9446000C94460018
:100050000C9446000C9446000C9446000C94460008
:100060000C9446000C94460011241FBECFEFD8E03C
:10007000DEBFCDBF21E0A0E0B1E001C01D92A23102
:10008000B207E1F70E94EA000C94A9010C94000069
:100090004530510509F04DC08230910531F12CF405
:1000A000009751F0019781F008958430910569F12E
:1000B00024F1059799F108958CEA96E290930B014B
:1000C00080930A0124E607C08CEB97E090930B0124
:1000D00080930A0124E1269FC001279F900D1124DF
:1000E000909301018093000108958EED93E0909329
:1000F0000B0180930A012AE0EECF8FEE91E09093FE
:100100000B0180930A0125E0E6CF86EC90E0909306
:100110000B0180930A01660F771F06C083E690E00B
:1001200090930B0180930A01709301016093000189
:1001300008954630510509F04CC082309105E9F030
:100140002CF4009751F0019781F0089584309105C7
:1001500069F1DCF0059799F108958CEA96E29093A5
:1001600005018093040124E617C08CEB97E090937F
:1001700005018093040124E10FC08EED93E090937C
:100180000501809304012AE007C08FEE91E090936F
:1001900005018093040125E0269FC001279F900D53
:1001A00011249093090180930801089586EC90E052
:1001B0009093050180930401660F771F06C083E6C4
:1001C00090E090930501809304017093090160937E
:1001D00008010895529A5A98539A5B9885E090E0E6
:1001E000909303018093020182E390E090930F01CA
:1001F00080930E0186E090E090930D0180930C01B6
:10020000809181008860809381008091810082606C
:100210008093810088EC90E090938900809388001F
:1002200080916F00826080936F00789460910E01DE
:1002300070910F0145E050E080910201909103011F
:100240000E9448008CEA96E2909305018093040195
:1002500080ED97E09093090180930801FFCF1F92F2
:100260000F920FB60F9211242F933F938F939F936A
:10027000209106013091070180910A0190910B01B4
:100280002817390749F42091000130910101121615
:10029000130614F45A9A07C0209106013091070101
:1002A0008217930721F41092070110920601209102
:1002B00006013091070180910001909101012817FA
:1002C000390709F45A982091100130911101809159
:1002D0000401909105012817390749F4209108017C
:1002E000309109011216130614F45B9A07C020918D
:1002F0001001309111018217930721F4109211011E
:10030000109210012091100130911101809108018B
:10031000909109012817390709F45B988091100121
:100320009091110101969093110180931001809199
:1003300006019091070101969093070180930601B1
:100340009F918F913F912F910F900FBE0F901F9013
:060350001895F894FFCFA0
:00000001FF
