:100000000C9434000C9451000C9451000C94510049
:100010000C9451000C9451000C9451000C9451001C
:100020000C9451000C9451000C9451000C94440118
:100030000C9451000C9451000C9451000C945100FC
:100040000C9451000C9451000C9451000C945100EC
:100050000C9451000C9451000C9451000C945100DC
:100060000C9451000C94510011241FBECFEFD8E026
:10007000DEBFCDBF11E0A0E0B1E0E4EFF3E002C0ED
:1000800005900D92AE31B107D9F721E0AEE1B1E0B4
:1000900001C01D92A532B207E1F70E94A2010C94A3
:1000A000F8010C94000080FF02C0429A01C04298FF
:1000B00081FF02C0439A01C0439882FF02C0449A64
:1000C00001C0449883FF02C0459A08954598089559
:1000D000CF93C82F419A82958F700E945300419808
:1000E000419A8C2F0E945300419885E88A95F1F738
:1000F0000000CF91089540980C946800409A0C94A9
:100100006800CF93DF93EC018991882319F00E9456
:100110007E00FACFDF91CF91089590E4699F800D22
:10012000112480680C947B0081E00E947B008FE9A1
:100130009FE00197F1F700C00000089582E00E945F
:100140007B008FE99FE00197F1F700C00000089560
:10015000CF933A9A3B9A3C9A3D9A399A389A8FE2D1
:1001600095E70197F1F700C0000040984198C3E07F
:10017000419A83E00E94530041988FE097E20197F3
:10018000F1F700C00000C15099F7419A82E00E9447
:10019000530041988FEC97E00197F1F700C0000001
:1001A00088E20E947B0088E00E947B0081E00E9440
:1001B0007B008FE99FE00197F1F700C0000086E027
:1001C0000E947B008CE0CF910C947B00CF92DF9259
:1001D000EF92FF920F931F93CF93DF9300D000D045
:1001E00000D0CDB7DEB76C017B018A010E9494007C
:1001F00086E00E947B0080E091E00E94810080EC1C
:100200000E947B004AE0BE016B5F7F4FC6010E94E7
:10021000C301CE0105960E94810081E191E00E9418
:10022000810085EC0E947B004AE0BE016D5F7F4F3C
:10023000C7010E94C301CE0103960E94810084E1A0
:1002400091E00E9481008BEC0E947B004AE0BE019D
:100250006F5F7F4FC8010E94C301CE0101960E94CB
:10026000810089E191E00E94810026960FB6F89402
:10027000DEBF0FBECDBFDF91CF911F910F91FF90D9
:10028000EF90DF90CF9008951F920F920FB60F92CC
:1002900011242F933F934F935F936F937F938F938B
:1002A0009F93AF93BF93EF93FF9395B181E089271D
:1002B00085B98BB180588BB94091230150912401AD
:1002C00060911E0170911F01809120019091210188
:1002D0000E94E60080912301909124010196909361
:1002E000240180932301CC97E1F480911E01909129
:1002F0001F01019690931F0180931E01109224010B
:1003000010922301CC9769F48091200190912101F2
:100310000196909321018093200110921F01109269
:100320001E01FF91EF91BF91AF919F918F917F91AE
:100330006F915F914F913F912F910F900FBE0F9052
:100340001F901895B19A80918100886080938100F8
:1003500080916E00826080936E0082E19AE79093B4
:100360008900809388007894209A2198579A5F9A00
:10037000299A0E94A8001999FECF8091810084607B
:1003800080938100F8CFBB274A3031F4992322F4BF
:10039000BDE2909581959F4F0C94CF01BB27FB0147
:1003A0005527AA27880F991FAA1FA41710F0A41B6E
:1003B00083955051B9F7A05DAA3308F0A95DA193C8
:1003C000009779F7B111B1931192CB010C94E80128
:1003D000DC01FC01672F71917723E1F7329704C0AC
:1003E0007C916D9370836291AE17BF07C8F3089537
:0403F000F894FFCFAF
:1003F400435A4153204F44205354415254553A20B8
:0E040400002068006D696E200020732000004B
:00000001FF
