:100000000C9434000C943E000C943E000C943E0082
:100010000C943E000C943E000C943E000C943E0068
:100020000C943E000C943E000C943E000C943E0058
:100030000C943E000C943E000C943E000C943E0048
:100040000C943E000C943E000C943E000C943E0038
:100050000C943E000C943E000C943E000C943E0028
:100060000C943E000C943E0011241FBECFEFD8E04C
:10007000DEBFCDBF0E9490000C94FE000C940000E7
:1000800020E030E0281739074CF4EFECF7E0319727
:10009000F1F700C000002F5F3F4FF4CF089581E0DB
:1000A0008BB98FE99FE00197F1F700C0000082E073
:1000B0008BB98FE99FE00197F1F700C0000084E061
:1000C0008BB98FE99FE00197F1F700C0000088E04D
:1000D0008BB98FE99FE00197F1F700C00000089508
:1000E000CF92DF92EF92FF9228E02BB90E949F00FF
:1000F0006B017C01CB010E94400084E08BB9C601FA
:100100000E94400082E08BB9C6010E94400081E05D
:100110008BB9C601FF90EF90DF90CF900C94400018
:100120008FE08AB987B18C7F87B988B18C7F88B915
:1001300060E070E088E493E40E947000F9CF0E94D0
:10014000A6006894B1110C94F80008950E94DD0097
:1001500088F09F5798F0B92F9927B751B0F0E1F088
:10016000660F771F881F991F1AF0BA95C9F714C038
:10017000B13091F00E94F700B1E008950C94F700BF
:10018000672F782F8827B85F39F0B93FCCF3869571
:1001900077956795B395D9F73EF4909580957095CE
:1001A00061957F4F8F4F9F4F089557FD9058440F93
:1001B000551F59F05F3F71F04795880F97FB991FC6
:1001C00061F09F3F79F08795089512161306140683
:1001D000551FF2CF4695F1DF08C016161706180610
:1001E000991FF1CF86957105610508940895E894EB
:1001F000BB2766277727CB0197F90895F894FFCF9F
:00000001FF
