:100000000C9434000C9451000C9451000C94510049
:100010000C9451000C9451000C9451000C9451001C
:100020000C9451000C9451000C9451000C9451000C
:100030000C9451000C9451000C9451000C945100FC
:100040000C9451000C9451000C94A4000C94510099
:100050000C9451000C9451000C9451000C945100DC
:100060000C9451000C94510011241FBECFEFD8E026
:10007000DEBFCDBF11E0A0E0B1E0E0EAF1E002C0F8
:1000800005900D92A631B107D9F721E0A6E1B1E0C4
:1000900001C01D92A933B207E1F70E94CB000C9476
:1000A000CE000C9400008093C4009093C500E2EC55
:1000B000F0E0808183608083E1ECF0E08081886102
:1000C000808308958093C6002FE788E391E0215054
:1000D00080409040E1F700C000000895FC0191913C
:1000E000992361F09093C6002FE788E391E02150B7
:1000F00080409040E1F700C00000F1CF089583E315
:1001000090E00E9453003D98459AE1ECF0E0808138
:1001100080688083789480E091E00C946E009091E8
:10012000160180911701981769F0809117018F5F70
:100130008F7180931701E0911701F0E0E85EFE4FA8
:100140008081089580E008951F920F920FB60F925C
:1001500011248F939F93EF93FF938091C600E091BA
:100160001601EF5FEF7190911701E91759F0E093D5
:100170001601F0E0E85EFE4F80838A3019F481E0DA
:1001800080933801FF91EF919F918F910F900FBE57
:100190000F901F9018950E947F00FFCFF894FFCF1B
:1001A0005445535420554152543A20574F524B49CD
:0601B0004E470A0A0000A0
:00000001FF
