:100000000C9434000C943E000C943E000C943E0082
:100010000C943E000C943E000C943E000C943E0068
:100020000C943E000C943E000C943E000C943E0058
:100030000C943E000C943E000C943E000C943E0048
:100040000C943E000C943E000C943E000C943E0038
:100050000C943E000C943E000C943E000C943E0028
:100060000C943E000C943E0011241FBECFEFD8E04C
:10007000DEBFCDBF0E9440000C9471000C940000C4
:1000800084B18FEF84B980918000806C8093800070
:1000900080918000826080938000809181008861DF
:1000A00080938100809181008160809381008FE145
:1000B0009EE49093870080938600809186009091C3
:1000C00087008C5D954090938900809388002FE392
:1000D0008DE093E0215080409040E1F700C00000A7
:0600E000ECCFF894FFCF05
:00000001FF
