:100000000C9434000C9458000C943E000C943E0068
:100010000C946A000C943E000C943E000C943E003C
:100020000C943E000C943E000C943E000C943E0058
:100030000C943E000C943E000C943E000C943E0048
:100040000C943E000C943E000C943E000C943E0038
:100050000C943E000C943E000C943E000C943E0028
:100060000C943E000C943E0011241FBECFEFD8E04C
:10007000DEBFCDBF0E9440000C948E000C940000A7
:100080003D9A3C98529888B1806388B980916C0001
:10009000806180936C008091690082608093690028
:1000A000E89A809168008260809368007894FFCF1E
:1000B0001F920F920FB60F9211248F939F9398B1B6
:1000C00080E2892788B99F918F910F900FBE0F9082
:1000D0001F9018951F920F920FB60F9211242F9315
:1000E0003F934F935F936F937F938F939F93AF93C0
:1000F000BF93EF93FF930E945800FF91EF91BF9140
:10010000AF919F918F917F916F915F914F913F91AF
:100110002F910F900FBE0F901F901895F894FFCF5E
:00000001FF
