:100000000C9434000C9451000C9451000C94510049
:100010000C9451000C9451000C9451000C9451001C
:100020000C9451000C9451000C9451000C9451000C
:100030000C9451000C9451000C9451000C945100FC
:100040000C9451000C9451000C94A4000C94510099
:100050000C9451000C9451000C9451000C945100DC
:100060000C9451000C94510011241FBECFEFD8E026
:10007000DEBFCDBF11E0A0E0B1E0E2E4F2E002C0FB
:1000800005900D92A033B107D9F721E0A0E3B1E0CC
:1000900001C01D92A335B207E1F70E94CB000C947A
:1000A0001F010C9400008093C4009093C500E2EC03
:1000B000F0E0808183608083E1ECF0E08081886102
:1000C000808308958093C6002FE788E391E0215054
:1000D00080409040E1F700C000000895FC0191913C
:1000E000992361F09093C6002FE788E391E02150B7
:1000F00080409040E1F700C00000F1CF089583E315
:1001000090E00E9453003D98459AE1ECF0E0808138
:1001100080688083789480E091E00C946E009091E8
:10012000300180913101981769F0809131018F5F22
:100130008F7180933101E0913101F0E0EE5CFE4F70
:100140008081089580E008951F920F920FB60F925C
:1001500011248F939F93EF93FF938091C600E091BA
:100160003001EF5FEF7190913101E91759F0E093A1
:100170003001F0E0EE5CFE4F80838A3019F481E0BC
:1001800080935201FF91EF919F918F910F900FBE3D
:100190000F901F901895CF93DF9300D01F92CDB78B
:1001A000DEB70E947F003B98439A3C98449A80E0D7
:1001B00090E0339905C00196339902C03499FCCF81
:1001C0003499F7CF4AE0BE016F5F7F4F0E94F50080
:1001D00085E191E00E946E00CE0101960E946E00C2
:1001E0008BE291E00E946E00E2CFBB27FB01552716
:1001F000AA27880F991FAA1FA41710F0A41B839584
:100200005051B9F7A05DAA3308F0A95DA1930097FA
:1002100079F7B111B1931192CB010C940F01DC016C
:10022000FC01672F71917723E1F7329704C07C912D
:100230006D9370836291AE17BF07C8F30895F89469
:02024000FFCFEE
:100242005445535420554152543A20574F524B492A
:100252004E470A0A000A494C4F534320494D505514
:100262004C534F5720544F203A20002E200A200092
:00000001FF
