:100000000C9434000C9451000C9451000C94510049
:100010000C9451000C9451000C9451000C9451001C
:100020000C9451000C9451000C9451000C9451000C
:100030000C9451000C9451000C9451000C945100FC
:100040000C9451000C9451000C9451000C945100EC
:100050000C9451000C9451000C9451000C945100DC
:100060000C9451000C94510011241FBECFEFD8E026
:10007000DEBFCDBF11E0A0E0B1E0E8EFF2E002C0EA
:1000800005900D92A432B107D9F721E0A4E2B1E0C6
:1000900001C01D92A832B207E1F70E94F5000C944E
:1000A0007A010C94000080FF02C05D9A01C05D9847
:1000B00081FF02C05E9A01C05E9882FF02C05F9A13
:1000C00001C05F9883FF02C0289A08952898089578
:1000D000CF93C82F419A82958F700E945300419808
:1000E000419A8C2F0E945300419885E88A95F1F738
:1000F0000000CF91089540980C946800409A0C94A9
:100100006800CF93DF93EC018991882319F00E9456
:100110007E00FACFDF91CF91089590E4699F800D22
:10012000112480680C947B0081E00E947B008FE9A1
:100130009FE00197F1F700C00000089582E00E945F
:100140007B008FE99FE00197F1F700C00000089560
:10015000CF93559A569A579A209A399A389A8FE29D
:1001600095E70197F1F700C0000040984198C3E07F
:10017000419A83E00E94530041988FE097E20197F3
:10018000F1F700C00000C15099F7419A82E00E9447
:10019000530041988FEC97E00197F1F700C0000001
:1001A00088E20E947B0088E00E947B0081E00E9440
:1001B0007B008FE99FE00197F1F700C0000086E027
:1001C0000E947B008CE0CF910C947B0081E00E9428
:1001D0007B008FE99FE00197F1F700C0000086E007
:1001E0000E947B008FE00C947B000E94A800209866
:1001F000289AC1E0D0E0189B11C080912401909111
:100200002501892BC1F70E94E60080E091E00E9461
:100210008100D0932501C0932401EDCF0E94E60018
:1002200080E091E00E94810081EC0E947B008EE0E2
:1002300091E00E94810010922501109224011899EA
:10024000DCCF2FE788E391E0215080409040E1F738
:1002500000C00000F4CFCF93DF9300D0CDB7DEB75E
:100260004AE0BE016F5F7F4F0E9445010E94E60099
:1002700089E191E00E948100CE0101960E948100F7
:100280000F900F90DF91CF910895BB274A3031F442
:10029000992322F4BDE2909581959F4F0C945101D2
:1002A000BB27FB015527AA27880F991FAA1FA41750
:1002B00010F0A41B83955051B9F7A05DAA3308F044
:1002C000A95DA193009779F7B111B1931192CB0178
:1002D0000C946A01DC01FC01672F71917723E1F72F
:1002E000329704C07C916D9370836291AE17BF0703
:0802F000C8F30895F894FFCF54
:1002F8004D616369656A205A776F6C616E00506F53
:100308007A6472617769616D0077796E696B202014
:040318003A20000087
:00000001FF
