:100000000C94B1000C94CE000C94CE000C94CE0055
:100010000C94CE000C94CE000C94CE000C94CE0028
:100020000C94CE000C94CE000C94CE000C94CE0018
:100030000C94CE000C94CE000C94CE000C94CE0008
:100040000C94CE000C94CE000C9421010C94CE00A4
:100050000C94CE000C94CE000C94CE000C94CE00E8
:100060000C94CE000C94CE0000407A10F35A00A0FD
:10007000724E18090010A5D4E80000E87648170071
:1000800000E40B54020000CA9A3B000000E1F505B1
:10009000000080969800000040420F000000A086FB
:1000A00001000000102700000000E803000000002D
:1000B0006400000000000A000000000001000000D1
:1000C00000002C76D888DC674F0823DFC1DFAE59EB
:1000D000E1B1B796E5E3E453C63AE651997696E87E
:1000E000E6C28426EB898C9B62ED407C6FFCEFBC02
:1000F0009C9F40F2BAA56FA5F490055A2AF75C932D
:100100006B6CF9676DC11BFCE0E40D47FEF520E662
:10011000B500D0ED902E0300943577050080841E45
:10012000080000204E0A000000C80C333333330FA0
:10013000986E12831141EF8D2114893BE65516CF3D
:10014000FEE6DB18D1844B381BF77C1D901DA4BB49
:10015000E424203284725E228100C9F124ECA1E5FE
:100160003D2711241FBECFEFD8E0DEBFCDBF11E089
:10017000A0E0B1E0E2E8FAE002C005900D92A631FD
:10018000B107D9F721E0A6E1B1E001C01D92AB3380
:10019000B207E1F70E945C010C943F050C9400004B
:1001A0008093C4009093C500E2ECF0E0808183600E
:1001B0008083E1ECF0E08081886180830895809302
:1001C000C6002FE788E391E0215080409040E1F79E
:1001D00000C000000895FC019191992361F0909373
:1001E000C6002FE788E391E0215080409040E1F77E
:1001F00000C00000F1CF089583E390E00E94D0009A
:100200003D98459AE1ECF0E08081806880837894A5
:1002100080E091E00C94EB00909116018091170121
:10022000981769F0809117018F5F8F718093170184
:10023000E0911701F0E0E65EFE4F8081089580E0D6
:1002400008951F920F920FB60F9211248F939F93D0
:10025000EF93FF938091C600E0911601EF5FEF717D
:1002600090911701E91759F0E0931601F0E0E65E6E
:10027000FE4F80838A3019F481E080933A01FF9128
:10028000EF919F918F910F900FBE0F901F90189537
:1002900090917C00987F892B80937C0080917A00DC
:1002A000806480937A0080917A0086FDFCCF8091F3
:1002B0007800909179000895CF93DF9300D000D01B
:1002C000CDB7DEB70E94FC0080917C0080648093F3
:1002D0007C0080917A00806880937A0080917A0017
:1002E000866080937A008AE0E82EF12C1092190142
:1002F000109218011BE081E090E00E9448012091DB
:10030000180130911901820F931F90931901809366
:100310001801115081F7B7010E94A70180E090E019
:100320000E94BB0122E539E44DE95BE30E94F8013C
:100330008E010F5F1F4F22E042E00E94B602C8010B
:100340000E94EB0083E191E00E94EB00CFCFAA1B5B
:10035000BB1B51E107C0AA1FBB1FA617B70710F0B0
:10036000A61BB70B881F991F5A95A9F780959095E2
:10037000BC01CD010895E89409C097FB3EF4909527
:100380008095709561957F4F8F4F9F4F9923A9F06E
:10039000F92F96E9BB279395F695879577956795FD
:1003A000B795F111F8CFFAF4BB0F11F460FF1BC041
:1003B0006F5F7F4F8F4F9F4F16C0882311F096E9D4
:1003C00011C0772321F09EE8872F762F05C0662382
:1003D00071F096E8862F70E060E02AF09A95660F3B
:1003E000771F881FDAF7880F9695879597F90895F4
:1003F0000E940B020C947C020E946E0238F00E9454
:10040000750220F0952311F00C9465020C946B0298
:1004100011240C94B0020E948D0270F3959FC1F3D9
:10042000950F50E0551F629FF001729FBB27F00DA2
:10043000B11D639FAA27F00DB11DAA1F649F6627F7
:10044000B00DA11D661F829F2227B00DA11D621F46
:10045000739FB00DA11D621F839FA00D611D221F00
:10046000749F3327A00D611D231F849F600D211DE4
:10047000822F762F6A2F11249F5750409AF0F1F067
:1004800088234AF0EE0FFF1FBB1F661F771F881FD0
:1004900091505040A9F79E3F510580F00C946502A1
:1004A0000C94B0025F3FE4F3983ED4F386957795C1
:1004B0006795B795F795E7959F5FC1F7FE2B880F76
:1004C000911D9695879597F9089597F99F6780E80C
:1004D00070E060E008959FEF80EC089500240A9496
:1004E0001616170618060906089500240A9412160F
:1004F0001306140605060895092E0394000C11F442
:10050000882352F0BB0F40F4BF2B11F460FF04C0EE
:100510006F5F7F4F8F4F9F4F089557FD9058440F47
:10052000551F59F05F3F71F04795880F97FB991F52
:1005300061F09F3F79F0879508951216130614060F
:10054000551FF2CF4695F1DF08C01616170618069C
:10055000991FF1CF86957105610508940895E89477
:10056000BB2766277727CB0197F90895EF920F9362
:100570001F93CF93DF93E80147FD02C034E001C031
:1005800034E1042E000C550B57FF03C051954195E3
:100590005109E32E022F242FAE010E94D602CE0174
:1005A000DF91CF911F910F91EF900895A9E0B0E0F6
:1005B000ECEDF2E00C940E056A01122FB02E2BE345
:1005C000201720F0FF24F394F00E02C02CE3F22E4B
:1005D0000F2D27E0AE014F5F5F4F0E943004BC013A
:1005E0004981842F8970813031F0E1FC06C0E0FE42
:1005F00006C090E205C09DE203C09BE201C090E00E
:100600005E2D507143FF3CC0911102C083E001C0D8
:1006100084E0811718F4212F281B01C020E051111C
:100620000BC0F601822F30E2882319F031938150FC
:10063000FBCFC20ED11C20E0992329F0D6019C9358
:10064000F60131966F01C6010396E2FE0AC03EE450
:10065000D6013C9341E411964C93119712963C932A
:1006600006C03EE6F601308341E641833283FC0159
:10067000322F40E2332309F442C041933150FACF84
:1006800042FF44C0911102C083E001C084E08117A1
:1006900018F4212F281B01C020E051110BC0F601D6
:1006A000822F30E2882319F031938150FBCFC20EA4
:1006B000D11C20E0992329F0D6019C93F6013196B4
:1006C0006F01C6010396E2FE0BC039E4D6013C93EC
:1006D0003EE411963C93119736E412963C9307C082
:1006E00039E6F60130833EE6318336E63283FC019B
:1006F000322F40E2332319F041933150FBCFFC01FC
:10070000E20FF11D10828EEF9FEFA6C021E030E0D6
:10071000911102C020E030E0161617061CF4FB0110
:10072000319602C0E1E0F0E02E0F3F1FBB2021F028
:10073000EB2DF0E0319602C0E0E0F0E02E0F3F1F1D
:10074000E12FF0E02E173F071CF4121B212F01C0F0
:1007500020E08E2D887159F4F601822F30E2882333
:1007600019F031938150FBCFC20ED11C20E09923A8
:1007700029F0D6019C93F60131966F0151110BC0FF
:10078000F601822F90E3882319F091938150FBCFDB
:10079000C20ED11C20E00F2D060F9A81342F30712C
:1007A00044FF03C0913309F40150101624F40930BA
:1007B00018F008E001C001E0AB0177FF02C040E0A3
:1007C00050E0FB01E41BF50BA1E0B0E0AC0FBD1F56
:1007D000EA0FFB1F8EE2A82E4B01801A91080B2D09
:1007E00010E01195019511094F3FBFEF5B0721F410
:1007F000D601AC9211966D01641775072CF0841622
:10080000950614F4818101C080E34150510931966D
:10081000D60111967D014017510724F0D6018C9323
:100820006701E2CF6417750739F4963320F49533E6
:1008300019F4311101C081E3F6018083F701822FA1
:1008400090E2882319F091938150FBCFF701E20FDA
:10085000F11D108280E090E02996ECE00C942A05CE
:10086000283008F027E03327DA01990F311D87FD82
:10087000916000966105710539F432602E5F3D93F9
:1008800030E32A95E1F708959F3F30F080387105F5
:10089000610509F03C5F3C5F3D93913008F0806852
:1008A000911DDF93CF931F930F93FF92EF92192F18
:1008B000987F9695E92F96959695E90FFF27EE5329
:1008C000FF4F99273327EE24FF24A701E701059066
:1008D0000894079428F4360FE71EF81E491F511D8F
:1008E000660F771F881F991F0694A1F7059007943C
:1008F00028F4E70EF81E491F561FC11D770F881FE9
:10090000991F661F0694A1F70590079428F4F80E26
:10091000491F561FC71FD11D880F991F661F771FBC
:100920000694A1F70590079420F4490F561FC71F9E
:10093000D81F990F661F771F881F0694A9F7849107
:100940001095177041F0D695C79557954795F79430
:10095000E7941A95C1F7E8E6F0E0689415901591D0
:1009600035916591959105907FE27395E118F10AB3
:10097000430B560BC90BD009C0F7E10CF11E431F06
:10098000561FC91FD01D7EF4703311F48A95E6CF2F
:10099000E894015030F0080F0AF40027021708F419
:1009A000202F2395022F7A3328F079E37D932A951F
:1009B000E9F710C07D932A9589F606949795679577
:1009C000379517951794E118F10A430B560BC90B8D
:1009D000D00998F023957E9173957A3308F070E3EF
:1009E0007C932013B8F77E9170617D9330F08395EE
:1009F00071E37D9370E32A95E1F71124EF90FF9066
:100A00000F911F91CF91DF91992787FD90950895C0
:100A10002F923F924F925F926F927F928F929F920E
:100A2000AF92BF92CF92DF92EF92FF920F931F93FC
:100A3000CF93DF93CDB7DEB7CA1BDB0B0FB6F894AD
:100A4000DEBF0FBECDBF09942A88398848885F84ED
:100A50006E847D848C849B84AA84B984C884DF805E
:100A6000EE80FD800C811B81AA81B981CE0FD11D42
:100A70000FB6F894DEBF0FBECDBFED010895F89418
:020A8000FFCFA6
:100A82005445535420554152543A20574F524B49E2
:060A92004E470A0A0000B5
:00000001FF
