:100000000C9434000C9451000C9451000C94510049
:100010000C9451000C9451000C9451000C9451001C
:100020000C9451000C9451000C9451000C9451000C
:100030000C9451000C9451000C9451000C945100FC
:100040000C9451000C9451000C94CA000C94510073
:100050000C9451000C9451000C9451000C945100DC
:100060000C9451000C94510011241FBECFEFD8E026
:10007000DEBFCDBF11E0A0E0B1E0ECEDF1E002C0E9
:1000800005900D92A63EB107D9F722E0A6EEB1E0A9
:1000900001C01D92AA30B207E1F70E9494000C94AF
:1000A000EC000C9400008093C4009093C500E2EC37
:1000B000F0E0808183608083E1ECF0E08081886102
:1000C000808308958093C6002FE788E391E0215054
:1000D00080409040E1F700C000000895FC0191913C
:1000E000992361F09093C6002FE788E391E02150B7
:1000F00080409040E1F700C00000F1CF089590915A
:10010000E6018091E701981769F08091E7018F5F20
:100110008F718093E701E091E701F0E0E851FE4F35
:100120008081089580E0089583E390E00E94530069
:10013000579A5F9A8091C10080688093C10078943B
:1001400080E091E00E946E00C0E0D0E00E947F005D
:100150008823E1F38F7D843569F4CD2B21F45F98FA
:1001600084E591E002C084E691E00E946E00C1E067
:10017000D0E0ECCF8E3449F4209721F05F9A84E8E8
:1001800091E0E0CF85E991E002C086EB91E00E942A
:100190006E00DCCF1F920F920FB60F9211248F9337
:1001A0009F93EF93FF938091C600E091E601EF5F8C
:1001B000EF719091E701E91731F0E093E601F0E08B
:1001C000E851FE4F8083FF91EF919F918F910F90A7
:0C01D0000FBE0F901F901895F894FFCF01
:1001DC0050524F4752414D2053544552554A41437A
:1001EC00592044494F4441200A200A616279207AFF
:1001FC006170616C69632064696F6465206E616312
:10020C0069736E696A203A2054200A616279207AF7
:10021C006761736963206E616369736E696A203A02
:10022C00204E0A000A574C41435A414D2044494F35
:10023C0044450A000A44494F4441204A455354203E
:10024C00414B5455414C4E494520574C41435A4F14
:10025C004E410A000A57594C41435A414D204449DA
:10026C004F44450A000A44494F4441204A455354DF
:10027C0020414B5455414C4E49452057594C414314
:10028C005A4F4E410A000A4E4945524F5A504F5A46
:10029C004E414E4520504F4C4543454E4945205309
:1002AC0050525542554A204A45535A435A452052BA
:0602BC00415A2E0A000069
:00000001FF
