:100000000C9434000C9451000C9451000C94510049
:100010000C9451000C9451000C9451000C9451001C
:100020000C9451000C9451000C9451000C9451000C
:100030000C9451000C9451000C9451000C945100FC
:100040000C9451000C9451000C94AF000C9451008E
:100050000C9451000C9451000C9451000C945100DC
:100060000C9451000C94510011241FBECFEFD8E026
:10007000DEBFCDBF11E0A0E0B1E0EAE7F3E002C0EF
:1000800005900D92A033B107D9F721E0A0E3B1E0CC
:1000900001C01D92A635B207E1F70E9427010C941A
:1000A000BB010C9400008093C4009093C500E2EC67
:1000B000F0E0808183608083E1ECF0E08081886102
:1000C000808308958093C6002FE788E391E0215054
:1000D00080409040E1F700C000000895FC0191913C
:1000E000992361F09093C6002FE788E391E02150B7
:1000F00080409040E1F700C00000F1CF089583E315
:1001000090E00E9453003D98459AE1ECF0E0808138
:1001100080688083789480E091E00C946E0080E0A9
:1001200090E0FC01EB5CFE4F10820196803291055D
:10013000C1F708959091300180913401981769F0CA
:10014000809134018F5F8F7180933401E09134018D
:10015000F0E0EB5CFE4F8081089580E008951F92EF
:100160000F920FB60F9211248F939F93EF93FF93EB
:100170008091C600E0913001EF5FEF719091340102
:10018000E91759F0E0933001F0E0EB5CFE4F80831B
:100190008A3019F481E080935501FF91EF919F918E
:1001A0008F910F900FBE0F901F90189584EA809347
:1001B000BC008091BC0087FFFCCF089584E9809348
:1001C000BC008091BC0084FFFCCF08958093BB00ED
:1001D00084E88093BC008091BC0087FFFCCF089529
:1001E00020E4829FC001112484688093BC00809128
:1001F000BC0087FFFCCF8091BB000895FF920F9356
:100200001F93CF93DF93D82FC62FF42E89010E941E
:10021000D60020E1D29FC0011124CC0FC82B8C2F17
:100220000E94E6008F2D0E94E6000E94D6008C2FCF
:1002300081600E94E60081E00E94F000F801808366
:10024000DF91CF911F910F91FF900C94DE00CF931F
:10025000DF93CDB7DEB72D970FB6F894DEBF0FBE94
:10026000CDBF0E947F0087B18F7C87B988B1806342
:1002700088B981E08093B9008FE08093B8009E0137
:100280002F5F3F4F40E060E08AE00E94FE0019814E
:100290009E012F5F3F4F41E060E08AE00E94FE0038
:1002A0002981812F90E04AE0BE01655F7F4F922B4C
:1002B0000E94860185E191E00E946E00CE010B96BE
:1002C0000E946E0083E191E00E946E00FFCF0F93C9
:1002D0001F93CF93DF93C82FD62F042F122F0E9486
:1002E000D60080E1C89F900111248D2F880F822BAA
:1002F0000E94E600802F0E94E600812F0E94E60007
:10030000DF91CF911F910F910C94DE00BB274A30F3
:1003100031F4992322F4BDE2909581959F4F0C947E
:100320009201BB27FB015527AA27880F991FAA1FF7
:10033000A41710F0A41B83955051B9F7A05DAA3300
:1003400008F0A95DA193009779F7B111B1931192CB
:10035000CB010C94AB01DC01FC01672F7191772379
:10036000E1F7329704C07C916D9370836291AE1770
:0A037000BF07C8F30895F894FFCF0B
:10037A005445535420554152543A20574F524B49F1
:10038A004E470A0A006C69637A626120696E7420BA
:10039A006F64637A7974616E6120746F203A000029
:00000001FF
