:100000000C943F000C9454000C9454000C94540035
:100010000C9454000C9454000C9454000C94540010
:100020000C9454000C9454000C9454000C946F01E4
:100030000C9454000C9454000C9454000C945400F0
:100040000C9454000C9454000C9454000C945400E0
:100050000C9454000C9454000C9454000C945400D0
:100060000C9454000C94540060007A0081009700B6
:10007000A900BB00D100D700E500FC001701112446
:100080001FBECFEFD8E0DEBFCDBF11E0A0E0B1E0F2
:10009000E6E5F3E002C005900D92A430B107D9F770
:1000A0000E941C010C94A9010C94000090E08B307C
:1000B000910508F0C0C0FC01EC5CFF4F0C94A3015B
:1000C0001AB814B8509A8BB181708BB9529A8BB10F
:1000D00084708BB9559A8BB180728BB9579A8BB15A
:1000E00080788BB9209A85B1817085B9519A8BB18E
:1000F0008270A0C01AB814B884E28AB98BB11BB858
:1001000008951AB814B8209A85B1817085B9579AA4
:100110008BB180788BB9279A85B1807885B9529A4E
:100120008BB184708BB9509A8BB1817083C01AB82F
:1001300014B8509A8BB181708BB9529A8BB184707C
:100140008BB9559A8BB180728BB9579A8BB18078E5
:1001500068C01AB814B8519A8BB182708BB9279ABB
:1001600085B1807885B9529A8BB184708BB9559AD4
:100170008BB180725FC01AB814B8509A8BB181707D
:100180008BB9519A8BB182708BB9279A85B18078DF
:1001900085B9559A8BB180728BB9579A8BB180789B
:1001A00049C01AB814B8509A8BB1817017C01AB8E8
:1001B00014B8509A8BB181708BB9559A8BB18072FB
:1001C0008BB9529A8BB1847035C01AB814B8509A52
:1001D0008BB181708BB9529A8BB184708BB9559A5F
:1001E0008BB180728BB9579A8BB180788BB9209A7A
:1001F00085B1817085B912C01AB814B8509A8BB104
:1002000081708BB9529A8BB184708BB9559A8BB12E
:1002100080728BB9579A8BB180788BB9519A8BB118
:1002200082708BB9279A85B1807885B90895569ADE
:100230008BB180748BB9089582E19AE7909389001D
:1002400080938800809181008860809381008091F4
:10025000810084608093810080916F008260809330
:100260006F00B19A789487B18C6387B910920301BB
:1002700010920201109201011092000100E210E1BF
:10028000D8E0C4E0809103010E94560008B98FEDC8
:100290009EE20197F1F700C00000809102010E94E8
:1002A000560018B98FED9EE20197F1F700C00000EB
:1002B000809101010E945600D8B98FED9EE201970E
:1002C000F1F700C00000809100010E945600C8B9FB
:1002D0008FED9EE20197F1F700C00000D3CF1F928F
:1002E0000F920FB60F9211248F93809100018F5FB0
:1002F0008A3019F08093000120C010920001809193
:1003000001018F5F863019F08093010116C01092B1
:100310000101809102018F5F8A3019F08093020100
:100320000CC010920201809103018F5F8A3019F096
:100330008093030102C0109203018F910F900FBEB2
:100340000F901F901895EE0FFF1F0590F491E02D70
:060350000994F894FFCFB0
:04035600010205019A
:00000001FF
