:100000000C9434000C9451000C9410010C94510089
:100010000C9451000C9451000C9451000C9451001C
:100020000C9451000C9451000C9451000C9451000C
:100030000C9451000C9451000C9451000C945100FC
:100040000C9451000C9451000C9451000C945100EC
:100050000C9451000C9451000C9451000C945100DC
:100060000C9451000C94510011241FBECFEFD8E026
:10007000DEBFCDBF11E0A0E0B1E0E8E0F3E002C0F8
:1000800005900D92A231B107D9F721E0A2E1B1E0CC
:1000900001C01D92A431B207E1F70E94F9000C944F
:1000A00082010C94000080FF02C0429A01C0429875
:1000B00081FF02C0419A01C0419882FF02C0409A6C
:1000C00001C0409883FF02C0299A08952998089595
:1000D0003A9A399A389A219A0895CF93C82F0E9454
:1000E0006800439A8C2F82958F700E94530043982A
:1000F000439A8C2F0E94530043988FEE90E0019713
:10010000F1F700C00000CF91089545980C946D0060
:10011000459A0C946D000E9468003D9A3C9A3B9A67
:100120004598449843982FE788E391E02150804018
:100130009040E1F700C000004598449883E00E9499
:10014000530087E090E20197F1F700C0000083E0E0
:100150000E94530087EC90E00197F1F700C0000087
:1001600083E00E94530087EC90E00197F1F700C014
:10017000000082E00E94530088E20E9485009FEF09
:1001800020E782E0915020408040E1F700C000006D
:100190008DE00E9485009FEF20E782E09150204093
:1001A0008040E1F700C0000081E00E9485009FEFE1
:1001B00020E782E0915020408040E1F700C000003D
:1001C00086E00E9485009FEF20E782E0915020406A
:1001D0008040E1F700C000000895CF93DF93EC0169
:1001E0008991882319F00E948800FACFDF91CF917E
:1001F00008950E948B0080E091E00E94ED002FEFB7
:1002000080E792E0215080409040E1F700C000007C
:10021000509A58985B9A85B785BFE99A7894FFCF32
:100220001F920F920FB60F9211242F933F934F936B
:100230005F936F937F938F939F93AF93BF93EF934E
:10024000FF93CF93DF931F92CDB7DEB7809112015A
:1002500090911301019690931301809312014AE04B
:10026000BE016F5F7F4F0E94580180EC0E948500A5
:10027000CE0101960E94ED004B9BFECF8FE39CE9DF
:100280000197F1F700C000000F90DF91CF91FF912F
:10029000EF91BF91AF919F918F917F916F915F91FE
:1002A0004F913F912F910F900FBE0F901F90189577
:1002B000BB27FB015527AA27880F991FAA1FA41740
:1002C00010F0A41B83955051B9F7A05DAA3308F034
:1002D000A95DA193009779F7B111B1931192CB0168
:1002E0000C947201DC01FC01672F71917723E1F717
:1002F000329704C07C916D9370836291AE17BF07F3
:08030000C8F30895F894FFCF43
:1003080050727A656C61637A656E6965206E723ABF
:020318000000E3
:00000001FF
