:100000000C9434000C9451000C9451000C94510049
:100010000C9451000C9451000C9451000C9451001C
:100020000C9451000C9451000C9451000C9451000C
:100030000C9451000C9451000C9451000C945100FC
:100040000C9451000C9451000C94A4000C94510099
:100050000C9451000C9451000C9451000C945100DC
:100060000C9451000C94510011241FBECFEFD8E026
:10007000DEBFCDBF11E0A0E0B1E0E8E2F4E002C0F5
:1000800005900D92A833B107D9F721E0A8E3B1E0BC
:1000900001C01D92AA36B207E1F70E943F010C94FD
:1000A00012020C9400008093C4009093C500E2EC0F
:1000B000F0E0808183608083E1ECF0E08081886102
:1000C000808308958093C6002FE788E391E0215054
:1000D00080409040E1F700C000000895FC0191913C
:1000E000992361F09093C6002FE788E391E02150B7
:1000F00080409040E1F700C00000F1CF089583E315
:1001000090E00E9453003D98459AE1ECF0E0808138
:1001100080688083789481E091E00C946E009091E7
:10012000380180913901981769F0809139018F5F0A
:100130008F7180933901E0913901F0E0E35CFE4F6B
:100140008081089580E008951F920F920FB60F925C
:1001500011248F939F93EF93FF938091C600E091BA
:100160003801EF5FEF7190913901E91759F0E09391
:100170003801F0E0E35CFE4F80838A3019F481E0BF
:1001800080936901FF91EF919F918F910F900FBE26
:100190000F901F90189587B18F7C87B988B18063C5
:1001A00088B9089584EA8093BC008091BC0087FFE1
:1001B000FCCF089584E98093BC008091BC0084FF4B
:1001C000FCCF08958093BB0084E88093BC008091AD
:1001D000BC0087FFFCCF089520E4829FC00111245A
:1001E00084688093BC008091BC0087FFFCCF809125
:1001F000BB000895FF920F931F93CF93DF93182FA7
:10020000062FC42FF22ED32F0E94D200812F0E94DE
:10021000E200802F0E94E2000E94D20081E0810F64
:100220000E94E200C1500F2D1D2FCF3F59F081E0F9
:10023000C11101C080E00E94EC00F80181938F01A0
:10024000C150F3CFDF91CF911F910F91FF900C948C
:10025000DA001F93CF93DF93182FD62FC42F0E945D
:10026000D200812F0E94E2008D2F0E94E2008C2F8D
:100270000E94E200DF91CF911F910C94DA00CF939E
:10028000DF93CDB7DEB729970FB6F894DEBF0FBE68
:10029000CDBF0E947F000E94CB0086E191E00E94CA
:1002A0006E003B9A40E560E070E080ED90E00E94D7
:1002B000290149E561E070E080ED90E00E942901AC
:1002C00044E162E070E080ED90E00E9429012FE5BA
:1002D00031E04091000162E070E080ED90E00E942A
:1002E000FA0080915F01182F1695169516951670D5
:1002F000912F990F990F190F8F70180F4AE0BE01B7
:10030000695F7F4F812F90E00E94E8012FE531E087
:100310004091000161E070E080ED90E00E94FA0001
:1003200080915F01982F92959F708F702AE0929F25
:10033000800D11244AE0BE016C5F7F4F90E00E9467
:10034000E8012FE531E04091000160E070E080EDD0
:1003500090E00E94FA0080915F01982F92959F7023
:100360008F702AE0929F800D11244AE0BE016F5FDA
:100370007F4F90E00E94E8018BE291E00E946E00C6
:10038000CE0107960E946E0086E391E00E946E0007
:10039000CE0104960E946E0086E391E00E946E00FA
:1003A000CE0101960E946E0084E191E00E946E00F1
:1003B0008FEF91EE24E0815090402040E1F700C0A3
:1003C00000001F50133010F4439881CF439A7FCF21
:1003D000BB27FB015527AA27880F991FAA1FA4171F
:1003E00010F0A41B83955051B9F7A05DAA3308F013
:1003F000A95DA193009779F7B111B1931192CB0147
:100400000C940202DC01FC01672F71917723E1F764
:10041000329704C07C916D9370836291AE17BF07D1
:08042000C8F30895F894FFCF22
:10042800025445535420554152543A20574F524B89
:10043800494E470A0A0053544152542050524F47DC
:1004480052414D5520493243200A00435A41532016
:080458003A20202020003A00A8
:00000001FF
