:100000000C9434000C9446000C9446000C9446006A
:100010000C9446000C9446000C9446000C94460048
:100020000C9446000C9446000C9446000C949300EB
:100030000C9446000C9446000C9446000C94460028
:100040000C9446000C9446000C9446000C94460018
:100050000C9446000C9446000C9446000C94460008
:100060000C9446000C94460011241FBECFEFD8E03C
:10007000DEBFCDBF21E0A0E0B1E001C01D92A630FF
:10008000B207E1F70E948C000C94C6000C940000AB
:100090009093010180930001709305016093040126
:1000A000529A8091810088608093810080918100C4
:1000B00082608093810080910001909101018A30DB
:1000C0009105B9F044F48130910581F00597E9F488
:1000D00080EA9FE016C08233910571F08436910565
:1000E00071F0449791F488EE93E00BC080E29EE4B7
:1000F00008C080ED97E005C080E991E002C088EC7F
:1001000090E0909389008093880080916F008260D6
:1001100080936F007894089564E670E085E090E045
:100120000E944800FFCF1F920F920FB60F9211242A
:100130002F933F938F939F9380910201909103019E
:100140008436910529F45A9A109203011092020103
:1001500020910201309103018091040190910501E9
:100160002817390709F45A988091020190910301E8
:10017000019690930301809302019F918F913F918B
:100180002F910F900FBE0F901F901895F894FFCFEE
:00000001FF
